{
    "_format": "hh-sol-artifact-1",
    "contractName": "Semaphore",
    "sourceName": "contracts/Semaphore.sol",
    "abi": [
        {
            "inputs": [
                {
                    "components": [
                        {
                            "internalType": "address",
                            "name": "contractAddress",
                            "type": "address"
                        },
                        {
                            "internalType": "uint256",
                            "name": "merkleTreeDepth",
                            "type": "uint256"
                        }
                    ],
                    "internalType": "struct ISemaphore.Verifier[]",
                    "name": "_verifiers",
                    "type": "tuple[]"
                }
            ],
            "stateMutability": "nonpayable",
            "type": "constructor"
        },
        {
            "inputs": [],
            "name": "Semaphore__CallerIsNotTheGroupAdmin",
            "type": "error"
        },
        {
            "inputs": [],
            "name": "Semaphore__GroupAlreadyExists",
            "type": "error"
        },
        {
            "inputs": [],
            "name": "Semaphore__GroupDoesNotExist",
            "type": "error"
        },
        {
            "inputs": [],
            "name": "Semaphore__GroupIdIsNotLessThanSnarkScalarField",
            "type": "error"
        },
        {
            "inputs": [],
            "name": "Semaphore__MerkleTreeDepthIsNotSupported",
            "type": "error"
        },
        {
            "inputs": [],
            "name": "Semaphore__MerkleTreeRootIsExpired",
            "type": "error"
        },
        {
            "inputs": [],
            "name": "Semaphore__MerkleTreeRootIsNotPartOfTheGroup",
            "type": "error"
        },
        {
            "inputs": [],
            "name": "Semaphore__YouAreUsingTheSameNillifierTwice",
            "type": "error"
        },
        {
            "anonymous": false,
            "inputs": [
                {
                    "indexed": true,
                    "internalType": "uint256",
                    "name": "groupId",
                    "type": "uint256"
                },
                {
                    "indexed": true,
                    "internalType": "address",
                    "name": "oldAdmin",
                    "type": "address"
                },
                {
                    "indexed": true,
                    "internalType": "address",
                    "name": "newAdmin",
                    "type": "address"
                }
            ],
            "name": "GroupAdminUpdated",
            "type": "event"
        },
        {
            "anonymous": false,
            "inputs": [
                {
                    "indexed": true,
                    "internalType": "uint256",
                    "name": "groupId",
                    "type": "uint256"
                },
                {
                    "indexed": false,
                    "internalType": "uint256",
                    "name": "merkleTreeDepth",
                    "type": "uint256"
                },
                {
                    "indexed": false,
                    "internalType": "uint256",
                    "name": "zeroValue",
                    "type": "uint256"
                }
            ],
            "name": "GroupCreated",
            "type": "event"
        },
        {
            "anonymous": false,
            "inputs": [
                {
                    "indexed": true,
                    "internalType": "uint256",
                    "name": "groupId",
                    "type": "uint256"
                },
                {
                    "indexed": false,
                    "internalType": "uint256",
                    "name": "index",
                    "type": "uint256"
                },
                {
                    "indexed": false,
                    "internalType": "uint256",
                    "name": "identityCommitment",
                    "type": "uint256"
                },
                {
                    "indexed": false,
                    "internalType": "uint256",
                    "name": "merkleTreeRoot",
                    "type": "uint256"
                }
            ],
            "name": "MemberAdded",
            "type": "event"
        },
        {
            "anonymous": false,
            "inputs": [
                {
                    "indexed": true,
                    "internalType": "uint256",
                    "name": "groupId",
                    "type": "uint256"
                },
                {
                    "indexed": false,
                    "internalType": "uint256",
                    "name": "index",
                    "type": "uint256"
                },
                {
                    "indexed": false,
                    "internalType": "uint256",
                    "name": "identityCommitment",
                    "type": "uint256"
                },
                {
                    "indexed": false,
                    "internalType": "uint256",
                    "name": "merkleTreeRoot",
                    "type": "uint256"
                }
            ],
            "name": "MemberRemoved",
            "type": "event"
        },
        {
            "anonymous": false,
            "inputs": [
                {
                    "indexed": true,
                    "internalType": "uint256",
                    "name": "groupId",
                    "type": "uint256"
                },
                {
                    "indexed": false,
                    "internalType": "uint256",
                    "name": "index",
                    "type": "uint256"
                },
                {
                    "indexed": false,
                    "internalType": "uint256",
                    "name": "identityCommitment",
                    "type": "uint256"
                },
                {
                    "indexed": false,
                    "internalType": "uint256",
                    "name": "newIdentityCommitment",
                    "type": "uint256"
                },
                {
                    "indexed": false,
                    "internalType": "uint256",
                    "name": "merkleTreeRoot",
                    "type": "uint256"
                }
            ],
            "name": "MemberUpdated",
            "type": "event"
        },
        {
            "anonymous": false,
            "inputs": [
                {
                    "indexed": false,
                    "internalType": "uint256",
                    "name": "nullifierHash",
                    "type": "uint256"
                }
            ],
            "name": "NullifierHashAdded",
            "type": "event"
        },
        {
            "anonymous": false,
            "inputs": [
                {
                    "indexed": true,
                    "internalType": "uint256",
                    "name": "groupId",
                    "type": "uint256"
                },
                {
                    "indexed": false,
                    "internalType": "bytes32",
                    "name": "signal",
                    "type": "bytes32"
                }
            ],
            "name": "ProofVerified",
            "type": "event"
        },
        {
            "inputs": [
                {
                    "internalType": "uint256",
                    "name": "groupId",
                    "type": "uint256"
                },
                {
                    "internalType": "uint256",
                    "name": "identityCommitment",
                    "type": "uint256"
                }
            ],
            "name": "addMember",
            "outputs": [],
            "stateMutability": "nonpayable",
            "type": "function"
        },
        {
            "inputs": [
                {
                    "internalType": "uint256",
                    "name": "groupId",
                    "type": "uint256"
                },
                {
                    "internalType": "uint256[]",
                    "name": "identityCommitments",
                    "type": "uint256[]"
                }
            ],
            "name": "addMembers",
            "outputs": [],
            "stateMutability": "nonpayable",
            "type": "function"
        },
        {
            "inputs": [
                {
                    "internalType": "uint256",
                    "name": "groupId",
                    "type": "uint256"
                },
                {
                    "internalType": "uint256",
                    "name": "merkleTreeDepth",
                    "type": "uint256"
                },
                {
                    "internalType": "uint256",
                    "name": "zeroValue",
                    "type": "uint256"
                },
                {
                    "internalType": "address",
                    "name": "admin",
                    "type": "address"
                }
            ],
            "name": "createGroup",
            "outputs": [],
            "stateMutability": "nonpayable",
            "type": "function"
        },
        {
            "inputs": [
                {
                    "internalType": "uint256",
                    "name": "groupId",
                    "type": "uint256"
                },
                {
                    "internalType": "uint256",
                    "name": "merkleTreeDepth",
                    "type": "uint256"
                },
                {
                    "internalType": "uint256",
                    "name": "zeroValue",
                    "type": "uint256"
                },
                {
                    "internalType": "address",
                    "name": "admin",
                    "type": "address"
                },
                {
                    "internalType": "uint256",
                    "name": "merkleTreeRootDuration",
                    "type": "uint256"
                }
            ],
            "name": "createGroup",
            "outputs": [],
            "stateMutability": "nonpayable",
            "type": "function"
        },
        {
            "inputs": [
                {
                    "internalType": "uint256",
                    "name": "groupId",
                    "type": "uint256"
                }
            ],
            "name": "getMerkleTreeDepth",
            "outputs": [
                {
                    "internalType": "uint256",
                    "name": "",
                    "type": "uint256"
                }
            ],
            "stateMutability": "view",
            "type": "function"
        },
        {
            "inputs": [
                {
                    "internalType": "uint256",
                    "name": "groupId",
                    "type": "uint256"
                }
            ],
            "name": "getMerkleTreeRoot",
            "outputs": [
                {
                    "internalType": "uint256",
                    "name": "",
                    "type": "uint256"
                }
            ],
            "stateMutability": "view",
            "type": "function"
        },
        {
            "inputs": [
                {
                    "internalType": "uint256",
                    "name": "groupId",
                    "type": "uint256"
                }
            ],
            "name": "getNumberOfMerkleTreeLeaves",
            "outputs": [
                {
                    "internalType": "uint256",
                    "name": "",
                    "type": "uint256"
                }
            ],
            "stateMutability": "view",
            "type": "function"
        },
        {
            "inputs": [
                {
                    "internalType": "uint256",
                    "name": "",
                    "type": "uint256"
                }
            ],
            "name": "groupAdmins",
            "outputs": [
                {
                    "internalType": "address",
                    "name": "",
                    "type": "address"
                }
            ],
            "stateMutability": "view",
            "type": "function"
        },
        {
            "inputs": [
                {
                    "internalType": "uint256",
                    "name": "",
                    "type": "uint256"
                }
            ],
            "name": "merkleTreeExpiries",
            "outputs": [
                {
                    "internalType": "uint256",
                    "name": "rootDuration",
                    "type": "uint256"
                }
            ],
            "stateMutability": "view",
            "type": "function"
        },
        {
            "inputs": [
                {
                    "internalType": "uint256",
                    "name": "groupId",
                    "type": "uint256"
                },
                {
                    "internalType": "uint256",
                    "name": "identityCommitment",
                    "type": "uint256"
                },
                {
                    "internalType": "uint256[]",
                    "name": "proofSiblings",
                    "type": "uint256[]"
                },
                {
                    "internalType": "uint8[]",
                    "name": "proofPathIndices",
                    "type": "uint8[]"
                }
            ],
            "name": "removeMember",
            "outputs": [],
            "stateMutability": "nonpayable",
            "type": "function"
        },
        {
            "inputs": [
                {
                    "internalType": "uint256",
                    "name": "groupId",
                    "type": "uint256"
                },
                {
                    "internalType": "address",
                    "name": "newAdmin",
                    "type": "address"
                }
            ],
            "name": "updateGroupAdmin",
            "outputs": [],
            "stateMutability": "nonpayable",
            "type": "function"
        },
        {
            "inputs": [
                {
                    "internalType": "uint256",
                    "name": "groupId",
                    "type": "uint256"
                },
                {
                    "internalType": "uint256",
                    "name": "identityCommitment",
                    "type": "uint256"
                },
                {
                    "internalType": "uint256",
                    "name": "newIdentityCommitment",
                    "type": "uint256"
                },
                {
                    "internalType": "uint256[]",
                    "name": "proofSiblings",
                    "type": "uint256[]"
                },
                {
                    "internalType": "uint8[]",
                    "name": "proofPathIndices",
                    "type": "uint8[]"
                }
            ],
            "name": "updateMember",
            "outputs": [],
            "stateMutability": "nonpayable",
            "type": "function"
        },
        {
            "inputs": [
                {
                    "internalType": "uint256",
                    "name": "",
                    "type": "uint256"
                }
            ],
            "name": "verifiers",
            "outputs": [
                {
                    "internalType": "contract IVerifier",
                    "name": "",
                    "type": "address"
                }
            ],
            "stateMutability": "view",
            "type": "function"
        },
        {
            "inputs": [
                {
                    "internalType": "uint256",
                    "name": "groupId",
                    "type": "uint256"
                },
                {
                    "internalType": "uint256",
                    "name": "merkleTreeRoot",
                    "type": "uint256"
                },
                {
                    "internalType": "bytes32",
                    "name": "signal",
                    "type": "bytes32"
                },
                {
                    "internalType": "uint256",
                    "name": "nullifierHash",
                    "type": "uint256"
                },
                {
                    "internalType": "uint256",
                    "name": "externalNullifier",
                    "type": "uint256"
                },
                {
                    "internalType": "uint256[8]",
                    "name": "proof",
                    "type": "uint256[8]"
                }
            ],
            "name": "verifyProof",
            "outputs": [],
            "stateMutability": "nonpayable",
            "type": "function"
        }
    ],
    "bytecode": "0x60806040523480156200001157600080fd5b50604051620028bf380380620028bf833981810160405281019062000037919062000260565b60005b81518160ff1610156200013557818160ff168151811062000084577f4e487b7100000000000000000000000000000000000000000000000000000000600052603260045260246000fd5b60200260200101516000015160026000848460ff1681518110620000d1577f4e487b7100000000000000000000000000000000000000000000000000000000600052603260045260246000fd5b602002602001015160200151815260200190815260200160002060006101000a81548173ffffffffffffffffffffffffffffffffffffffff021916908373ffffffffffffffffffffffffffffffffffffffff1602179055508060010190506200003a565b5050620003e5565b6000620001546200014e84620002ce565b620002a5565b905080838252602082019050828560408602820111156200017457600080fd5b60005b85811015620001a857816200018d8882620001f6565b84526020840193506040830192505060018101905062000177565b5050509392505050565b600081519050620001c381620003b1565b92915050565b600082601f830112620001db57600080fd5b8151620001ed8482602086016200013d565b91505092915050565b6000604082840312156200020957600080fd5b620002156040620002a5565b905060006200022784828501620001b2565b60008301525060206200023d8482850162000249565b60208301525092915050565b6000815190506200025a81620003cb565b92915050565b6000602082840312156200027357600080fd5b600082015167ffffffffffffffff8111156200028e57600080fd5b6200029c84828501620001c9565b91505092915050565b6000620002b1620002c4565b9050620002bf82826200033b565b919050565b6000604051905090565b600067ffffffffffffffff821115620002ec57620002eb62000371565b5b602082029050602081019050919050565b60006200030a8262000311565b9050919050565b600073ffffffffffffffffffffffffffffffffffffffff82169050919050565b6000819050919050565b6200034682620003a0565b810181811067ffffffffffffffff8211171562000368576200036762000371565b5b80604052505050565b7f4e487b7100000000000000000000000000000000000000000000000000000000600052604160045260246000fd5b6000601f19601f8301169050919050565b620003bc81620002fd565b8114620003c857600080fd5b50565b620003d68162000331565b8114620003e257600080fd5b50565b6124ca80620003f56000396000f3fe608060405234801561001057600080fd5b50600436106100ea5760003560e01c8063878d7cfd1161008c578063ac1eff6811610066578063ac1eff6814610243578063ac28eacd14610273578063dabc4d51146102a3578063ec45622a146102d3576100ea565b8063878d7cfd146101db5780638b69310a1461020b578063aa524e2c14610227576100ea565b806343989f85116100c857806343989f8514610143578063568ee8261461015f578063638480be1461017b5780636389e107146101ab576100ea565b806304245371146100ef578063059f1bb51461010b5780631783efc314610127575b600080fd5b610109600480360381019061010491906118a4565b6102ef565b005b61012560048036038101906101209190611a5d565b610438565b005b610141600480360381019061013c91906118fc565b6105b0565b005b61015d60048036038101906101589190611938565b610699565b005b61017960048036038101906101749190611868565b610750565b005b6101956004803603810190610190919061183f565b6108a9565b6040516101a291906120bf565b60405180910390f35b6101c560048036038101906101c0919061183f565b6108c9565b6040516101d291906120bf565b60405180910390f35b6101f560048036038101906101f0919061183f565b6108e9565b60405161020291906120bf565b60405180910390f35b610225600480360381019061022091906119d3565b610907565b005b610241600480360381019061023c9190611ac0565b610abf565b005b61025d6004803603810190610258919061183f565b610c36565b60405161026a9190611f88565b60405180910390f35b61028d6004803603810190610288919061183f565b610c69565b60405161029a9190611f0b565b60405180910390f35b6102bd60048036038101906102b8919061183f565b610c9c565b6040516102ca91906120bf565b60405180910390f35b6102ed60048036038101906102e89190611b37565b610cbc565b005b826102f8610d75565b73ffffffffffffffffffffffffffffffffffffffff166003600083815260200190815260200160002060009054906101000a900473ffffffffffffffffffffffffffffffffffffffff1673ffffffffffffffffffffffffffffffffffffffff161461038f576040517fbb9bf27800000000000000000000000000000000000000000000000000000000815260040160405180910390fd5b60005b838390508160ff1610156103f7576103ec8585858460ff168181106103e0577f4e487b7100000000000000000000000000000000000000000000000000000000600052603260045260246000fd5b90506020020135610d7d565b806001019050610392565b50600061040385610c9c565b905042600460008781526020019081526020016000206001016000838152602001908152602001600020819055505050505050565b82600073ffffffffffffffffffffffffffffffffffffffff166002600083815260200190815260200160002060009054906101000a900473ffffffffffffffffffffffffffffffffffffffff1673ffffffffffffffffffffffffffffffffffffffff1614156104d3576040517fecf64f1200000000000000000000000000000000000000000000000000000000815260040160405180910390fd5b6104de858585610ea5565b816003600087815260200190815260200160002060006101000a81548173ffffffffffffffffffffffffffffffffffffffff021916908373ffffffffffffffffffffffffffffffffffffffff160217905550610e1060046000878152602001908152602001600020600001819055508173ffffffffffffffffffffffffffffffffffffffff16600073ffffffffffffffffffffffffffffffffffffffff16867f0ba83579a0e79193ef649b9f5a8759d35af086ba62a3e207b52e4a8ae30d49e360405160405180910390a45050505050565b816105b9610d75565b73ffffffffffffffffffffffffffffffffffffffff166003600083815260200190815260200160002060009054906101000a900473ffffffffffffffffffffffffffffffffffffffff1673ffffffffffffffffffffffffffffffffffffffff1614610650576040517fbb9bf27800000000000000000000000000000000000000000000000000000000815260040160405180910390fd5b61065a8383610d7d565b600061066584610c9c565b9050426004600086815260200190815260200160002060010160008381526020019081526020016000208190555050505050565b856106a2610d75565b73ffffffffffffffffffffffffffffffffffffffff166003600083815260200190815260200160002060009054906101000a900473ffffffffffffffffffffffffffffffffffffffff1673ffffffffffffffffffffffffffffffffffffffff1614610739576040517fbb9bf27800000000000000000000000000000000000000000000000000000000815260040160405180910390fd5b610747878787878787610ffe565b50505050505050565b81610759610d75565b73ffffffffffffffffffffffffffffffffffffffff166003600083815260200190815260200160002060009054906101000a900473ffffffffffffffffffffffffffffffffffffffff1673ffffffffffffffffffffffffffffffffffffffff16146107f0576040517fbb9bf27800000000000000000000000000000000000000000000000000000000815260040160405180910390fd5b816003600085815260200190815260200160002060006101000a81548173ffffffffffffffffffffffffffffffffffffffff021916908373ffffffffffffffffffffffffffffffffffffffff1602179055508173ffffffffffffffffffffffffffffffffffffffff16610861610d75565b73ffffffffffffffffffffffffffffffffffffffff16847f0ba83579a0e79193ef649b9f5a8759d35af086ba62a3e207b52e4a8ae30d49e360405160405180910390a4505050565b600060016000838152602001908152602001600020600201549050919050565b600060016000838152602001908152602001600020600001549050919050565b60046020528060005260406000206000915090508060000154905081565b600061091287610c9c565b9050600081141561094f576040517f029f057900000000000000000000000000000000000000000000000000000000815260040160405180910390fd5b808614610a205760006004600089815260200190815260200160002060010160008881526020019081526020016000205490506000600460008a815260200190815260200160002060000154905060008214156109d8576040517f4d32958600000000000000000000000000000000000000000000000000000000815260040160405180910390fd5b80826109e49190612261565b421115610a1d576040517f9581a99000000000000000000000000000000000000000000000000000000000815260040160405180910390fd5b50505b6000610a2b886108c9565b905060006002600083815260200190815260200160002060009054906101000a900473ffffffffffffffffffffffffffffffffffffffff169050610a73878988888886611127565b610a7c86611477565b887f102229041138505f4cecdadc8e3ac1cd92c55870c17371050fc00bdb0888980188604051610aac9190611f6d565b60405180910390a2505050505050505050565b83600073ffffffffffffffffffffffffffffffffffffffff166002600083815260200190815260200160002060009054906101000a900473ffffffffffffffffffffffffffffffffffffffff1673ffffffffffffffffffffffffffffffffffffffff161415610b5a576040517fecf64f1200000000000000000000000000000000000000000000000000000000815260040160405180910390fd5b610b65868686610ea5565b826003600088815260200190815260200160002060006101000a81548173ffffffffffffffffffffffffffffffffffffffff021916908373ffffffffffffffffffffffffffffffffffffffff1602179055508160046000888152602001908152602001600020600001819055508273ffffffffffffffffffffffffffffffffffffffff16600073ffffffffffffffffffffffffffffffffffffffff16877f0ba83579a0e79193ef649b9f5a8759d35af086ba62a3e207b52e4a8ae30d49e360405160405180910390a4505050505050565b60026020528060005260406000206000915054906101000a900473ffffffffffffffffffffffffffffffffffffffff1681565b60036020528060005260406000206000915054906101000a900473ffffffffffffffffffffffffffffffffffffffff1681565b600060016000838152602001908152602001600020600101549050919050565b86610cc5610d75565b73ffffffffffffffffffffffffffffffffffffffff166003600083815260200190815260200160002060009054906101000a900473ffffffffffffffffffffffffffffffffffffffff1673ffffffffffffffffffffffffffffffffffffffff1614610d5c576040517fbb9bf27800000000000000000000000000000000000000000000000000000000815260040160405180910390fd5b610d6b888888888888886114a5565b5050505050505050565b600033905090565b6000610d88836108c9565b1415610dc0576040517f029f057900000000000000000000000000000000000000000000000000000000815260040160405180910390fd5b6001600083815260200190815260200160002073__$0c6eb7207c37accf1552a1c47686411ac0$__63168703fa9091836040518363ffffffff1660e01b8152600401610e0d929190611fa3565b60006040518083038186803b158015610e2557600080fd5b505af4158015610e39573d6000803e3d6000fd5b505050506000610e4883610c9c565b905060006001610e57856108a9565b610e619190612311565b9050837f19239b3f93cd10558aaf11423af70c77763bf54f52bcc75bfa74d4d13548cde9828585604051610e9793929190612103565b60405180910390a250505050565b7f30644e72e131a029b85045b68181585d2833e84879b9709143e1f593f00000018310610efe576040517fa61c78ca00000000000000000000000000000000000000000000000000000000815260040160405180910390fd5b6000610f09846108c9565b14610f40576040517f8121725b00000000000000000000000000000000000000000000000000000000815260040160405180910390fd5b6001600084815260200190815260200160002073__$0c6eb7207c37accf1552a1c47686411ac0$__631095fbb4909184846040518463ffffffff1660e01b8152600401610f8f93929190612023565b60006040518083038186803b158015610fa757600080fd5b505af4158015610fbb573d6000803e3d6000fd5b50505050827f0d000126c26c1bbe400fd2332187f75d58b69306f9ec47b408686189d3a008338383604051610ff19291906120da565b60405180910390a2505050565b600061100987610c9c565b1415611041576040517f029f057900000000000000000000000000000000000000000000000000000000815260040160405180910390fd5b6001600087815260200190815260200160002073__$0c6eb7207c37accf1552a1c47686411ac0$__630629596f909187878787876040518763ffffffff1660e01b815260040161109696959493929190611fcc565b60006040518083038186803b1580156110ae57600080fd5b505af41580156110c2573d6000803e3d6000fd5b5050505060006110d187610c9c565b905060006110df84846115d3565b9050877f3108849c053c77b8073a11256dffb5ffd5b55e93e105a355e1c9061db890d87182898560405161111593929190612103565b60405180910390a25050505050505050565b60008085815260200190815260200160002060009054906101000a900460ff161561117e576040517f948d067400000000000000000000000000000000000000000000000000000000815260040160405180910390fd5b600061118987611702565b90508173ffffffffffffffffffffffffffffffffffffffff16635fe8c13b6040518060400160405280866000600881106111ec577f4e487b7100000000000000000000000000000000000000000000000000000000600052603260045260246000fd5b6020020135815260200186600160088110611230577f4e487b7100000000000000000000000000000000000000000000000000000000600052603260045260246000fd5b60200201358152506040518060400160405280604051806040016040528089600260088110611288577f4e487b7100000000000000000000000000000000000000000000000000000000600052603260045260246000fd5b60200201358152602001896003600881106112cc577f4e487b7100000000000000000000000000000000000000000000000000000000600052603260045260246000fd5b6020020135815250815260200160405180604001604052808960046008811061131e577f4e487b7100000000000000000000000000000000000000000000000000000000600052603260045260246000fd5b6020020135815260200189600560088110611362577f4e487b7100000000000000000000000000000000000000000000000000000000600052603260045260246000fd5b60200201358152508152506040518060400160405280886006600881106113b2577f4e487b7100000000000000000000000000000000000000000000000000000000600052603260045260246000fd5b60200201358152602001886007600881106113f6577f4e487b7100000000000000000000000000000000000000000000000000000000600052603260045260246000fd5b602002013581525060405180608001604052808c81526020018b81526020018781526020018a8152506040518563ffffffff1660e01b815260040161143e9493929190611f26565b60006040518083038186803b15801561145657600080fd5b505afa15801561146a573d6000803e3d6000fd5b5050505050505050505050565b600160008083815260200190815260200160002060006101000a81548160ff02191690831515021790555050565b60006114b088610c9c565b14156114e8576040517f029f057900000000000000000000000000000000000000000000000000000000815260040160405180910390fd5b6001600088815260200190815260200160002073__$0c6eb7207c37accf1552a1c47686411ac0$__63a547882790918888888888886040518863ffffffff1660e01b815260040161153f979695949392919061205a565b60006040518083038186803b15801561155757600080fd5b505af415801561156b573d6000803e3d6000fd5b50505050600061157a88610c9c565b9050600061158884846115d3565b9050887fea3588e4a2a0c93d6a0e69dfeaf7496f43ccccf02ad9ce0a5b7627cbca4b61b1828a8a866040516115c0949392919061213a565b60405180910390a2505050505050505050565b6000806000905060008484905090505b60008160ff1611156116f757600082118061165e57506000858560018461160a9190612345565b60ff16818110611643577f4e487b7100000000000000000000000000000000000000000000000000000000600052603260045260246000fd5b90506020020160208101906116589190611be7565b60ff1614155b156116eb5760028261167091906122b7565b9150600185856001846116839190612345565b60ff168181106116bc577f4e487b7100000000000000000000000000000000000000000000000000000000600052603260045260246000fd5b90506020020160208101906116d19190611be7565b60ff1614156116ea576001826116e79190612261565b91505b5b806001900390506115e3565b508091505092915050565b60006008826040516020016117179190611ef0565b6040516020818303038152906040528051906020012060001c901c9050919050565b60008135905061174881612438565b92915050565b60008190508260206008028201111561176657600080fd5b92915050565b60008083601f84011261177e57600080fd5b8235905067ffffffffffffffff81111561179757600080fd5b6020830191508360208202830111156117af57600080fd5b9250929050565b60008083601f8401126117c857600080fd5b8235905067ffffffffffffffff8111156117e157600080fd5b6020830191508360208202830111156117f957600080fd5b9250929050565b60008135905061180f8161244f565b92915050565b60008135905061182481612466565b92915050565b6000813590506118398161247d565b92915050565b60006020828403121561185157600080fd5b600061185f84828501611815565b91505092915050565b6000806040838503121561187b57600080fd5b600061188985828601611815565b925050602061189a85828601611739565b9150509250929050565b6000806000604084860312156118b957600080fd5b60006118c786828701611815565b935050602084013567ffffffffffffffff8111156118e457600080fd5b6118f08682870161176c565b92509250509250925092565b6000806040838503121561190f57600080fd5b600061191d85828601611815565b925050602061192e85828601611815565b9150509250929050565b6000806000806000806080878903121561195157600080fd5b600061195f89828a01611815565b965050602061197089828a01611815565b955050604087013567ffffffffffffffff81111561198d57600080fd5b61199989828a0161176c565b9450945050606087013567ffffffffffffffff8111156119b857600080fd5b6119c489828a016117b6565b92509250509295509295509295565b6000806000806000806101a087890312156119ed57600080fd5b60006119fb89828a01611815565b9650506020611a0c89828a01611815565b9550506040611a1d89828a01611800565b9450506060611a2e89828a01611815565b9350506080611a3f89828a01611815565b92505060a0611a5089828a0161174e565b9150509295509295509295565b60008060008060808587031215611a7357600080fd5b6000611a8187828801611815565b9450506020611a9287828801611815565b9350506040611aa387828801611815565b9250506060611ab487828801611739565b91505092959194509250565b600080600080600060a08688031215611ad857600080fd5b6000611ae688828901611815565b9550506020611af788828901611815565b9450506040611b0888828901611815565b9350506060611b1988828901611739565b9250506080611b2a88828901611815565b9150509295509295909350565b600080600080600080600060a0888a031215611b5257600080fd5b6000611b608a828b01611815565b9750506020611b718a828b01611815565b9650506040611b828a828b01611815565b955050606088013567ffffffffffffffff811115611b9f57600080fd5b611bab8a828b0161176c565b9450945050608088013567ffffffffffffffff811115611bca57600080fd5b611bd68a828b016117b6565b925092505092959891949750929550565b600060208284031215611bf957600080fd5b6000611c078482850161182a565b91505092915050565b6000611c1c8383611cbe565b60408301905092915050565b6000611c348383611eb4565b60208301905092915050565b6000611c4c8383611ee1565b60208301905092915050565b611c6181612379565b82525050565b611c70816121a7565b611c7a81846121fc565b9250611c858261217f565b8060005b83811015611cb6578151611c9d8782611c10565b9650611ca8836121c8565b925050600181019050611c89565b505050505050565b611cc7816121b2565b611cd18184612207565b9250611cdc82612189565b8060005b83811015611d0d578151611cf48782611c28565b9650611cff836121d5565b925050600181019050611ce0565b505050505050565b611d1e816121b2565b611d288184612212565b9250611d3382612189565b8060005b83811015611d64578151611d4b8782611c28565b9650611d56836121d5565b925050600181019050611d37565b505050505050565b611d75816121bd565b611d7f818461221d565b9250611d8a82612193565b8060005b83811015611dbb578151611da28782611c28565b9650611dad836121e2565b925050600181019050611d8e565b505050505050565b6000611dcf8385612228565b93507f07ffffffffffffffffffffffffffffffffffffffffffffffffffffffffffffff831115611dfe57600080fd5b602083029250611e0f8385846123f0565b82840190509392505050565b6000611e278385612239565b9350611e328261219d565b8060005b85811015611e6b57611e48828461224a565b611e528882611c40565b9750611e5d836121ef565b925050600181019050611e36565b5085925050509392505050565b611e818161238b565b82525050565b611e98611e938261238b565b6123ff565b82525050565b611ea7816123cc565b82525050565b8082525050565b611ebd816123b5565b82525050565b611ecc816123b5565b82525050565b611edb816123b5565b82525050565b611eea816123bf565b82525050565b6000611efc8284611e87565b60208201915081905092915050565b6000602082019050611f206000830184611c58565b92915050565b600061018082019050611f3c6000830187611d15565b611f496040830186611c67565b611f5660c0830185611d15565b611f64610100830184611d6c565b95945050505050565b6000602082019050611f826000830184611e78565b92915050565b6000602082019050611f9d6000830184611e9e565b92915050565b6000604082019050611fb86000830185611ead565b611fc56020830184611ed2565b9392505050565b6000608082019050611fe16000830189611ead565b611fee6020830188611ed2565b8181036040830152612001818688611dc3565b90508181036060830152612016818486611e1b565b9050979650505050505050565b60006060820190506120386000830186611ead565b6120456020830185611ed2565b6120526040830184611ed2565b949350505050565b600060a08201905061206f600083018a611ead565b61207c6020830189611ed2565b6120896040830188611ed2565b818103606083015261209c818688611dc3565b905081810360808301526120b1818486611e1b565b905098975050505050505050565b60006020820190506120d46000830184611ec3565b92915050565b60006040820190506120ef6000830185611ec3565b6120fc6020830184611ec3565b9392505050565b60006060820190506121186000830186611ec3565b6121256020830185611ec3565b6121326040830184611ec3565b949350505050565b600060808201905061214f6000830187611ec3565b61215c6020830186611ec3565b6121696040830185611ec3565b6121766060830184611ec3565b95945050505050565b6000819050919050565b6000819050919050565b6000819050919050565b6000819050919050565b600060029050919050565b600060029050919050565b600060049050919050565b6000602082019050919050565b6000602082019050919050565b6000602082019050919050565b6000602082019050919050565b600081905092915050565b600081905092915050565b600081905092915050565b600081905092915050565b600082825260208201905092915050565b600082825260208201905092915050565b6000612259602084018461182a565b905092915050565b600061226c826123b5565b9150612277836123b5565b9250827fffffffffffffffffffffffffffffffffffffffffffffffffffffffffffffffff038211156122ac576122ab612409565b5b828201905092915050565b60006122c2826123b5565b91506122cd836123b5565b9250817fffffffffffffffffffffffffffffffffffffffffffffffffffffffffffffffff048311821515161561230657612305612409565b5b828202905092915050565b600061231c826123b5565b9150612327836123b5565b92508282101561233a57612339612409565b5b828203905092915050565b6000612350826123bf565b915061235b836123bf565b92508282101561236e5761236d612409565b5b828203905092915050565b600061238482612395565b9050919050565b6000819050919050565b600073ffffffffffffffffffffffffffffffffffffffff82169050919050565b6000819050919050565b600060ff82169050919050565b60006123d7826123de565b9050919050565b60006123e982612395565b9050919050565b82818337600083830152505050565b6000819050919050565b7f4e487b7100000000000000000000000000000000000000000000000000000000600052601160045260246000fd5b61244181612379565b811461244c57600080fd5b50565b6124588161238b565b811461246357600080fd5b50565b61246f816123b5565b811461247a57600080fd5b50565b612486816123bf565b811461249157600080fd5b5056fea2646970667358221220319180b066562ce5e476c345023983056ff72fc95c7fae663ada7ee11e17bfe764736f6c63430008040033",
    "linkReferences": {
        "@zk-kit/incremental-merkle-tree.sol/IncrementalBinaryTree.sol": {
            "IncrementalBinaryTree": [
                {
                    "length": 20,
                    "start": 4554
                },
                {
                    "length": 20,
                    "start": 4938
                },
                {
                    "length": 20,
                    "start": 5195
                },
                {
                    "length": 20,
                    "start": 6386
                }
            ]
        }
    },
    "deployedLinkReferences": {
        "@zk-kit/incremental-merkle-tree.sol/IncrementalBinaryTree.sol": {
            "IncrementalBinaryTree": [
                {
                    "length": 20,
                    "start": 3541
                },
                {
                    "length": 20,
                    "start": 3925
                },
                {
                    "length": 20,
                    "start": 4182
                },
                {
                    "length": 20,
                    "start": 5373
                }
            ]
        }
    }
}