{
    "_format": "hh-sol-artifact-1",
    "contractName": "Semaphore",
    "sourceName": "contracts/Semaphore.sol",
    "abi": [
        {
            "inputs": [
                {
                    "components": [
                        {
                            "internalType": "address",
                            "name": "contractAddress",
                            "type": "address"
                        },
                        {
                            "internalType": "uint256",
                            "name": "merkleTreeDepth",
                            "type": "uint256"
                        }
                    ],
                    "internalType": "struct ISemaphore.Verifier[]",
                    "name": "_verifiers",
                    "type": "tuple[]"
                }
            ],
            "stateMutability": "nonpayable",
            "type": "constructor"
        },
        {
            "inputs": [],
            "name": "Semaphore__CallerIsNotTheGroupAdmin",
            "type": "error"
        },
        {
            "inputs": [],
            "name": "Semaphore__GroupAlreadyExists",
            "type": "error"
        },
        {
            "inputs": [],
            "name": "Semaphore__GroupDoesNotExist",
            "type": "error"
        },
        {
            "inputs": [],
            "name": "Semaphore__GroupIdIsNotLessThanSnarkScalarField",
            "type": "error"
        },
        {
            "inputs": [],
            "name": "Semaphore__MerkleTreeDepthIsNotSupported",
            "type": "error"
        },
        {
            "inputs": [],
            "name": "Semaphore__MerkleTreeRootIsExpired",
            "type": "error"
        },
        {
            "inputs": [],
            "name": "Semaphore__MerkleTreeRootIsNotPartOfTheGroup",
            "type": "error"
        },
        {
            "inputs": [],
            "name": "Semaphore__YouAreUsingTheSameNillifierTwice",
            "type": "error"
        },
        {
            "anonymous": false,
            "inputs": [
                {
                    "indexed": true,
                    "internalType": "uint256",
                    "name": "groupId",
                    "type": "uint256"
                },
                {
                    "indexed": true,
                    "internalType": "address",
                    "name": "oldAdmin",
                    "type": "address"
                },
                {
                    "indexed": true,
                    "internalType": "address",
                    "name": "newAdmin",
                    "type": "address"
                }
            ],
            "name": "GroupAdminUpdated",
            "type": "event"
        },
        {
            "anonymous": false,
            "inputs": [
                {
                    "indexed": true,
                    "internalType": "uint256",
                    "name": "groupId",
                    "type": "uint256"
                },
                {
                    "indexed": false,
                    "internalType": "uint256",
                    "name": "merkleTreeDepth",
                    "type": "uint256"
                },
                {
                    "indexed": false,
                    "internalType": "uint256",
                    "name": "zeroValue",
                    "type": "uint256"
                }
            ],
            "name": "GroupCreated",
            "type": "event"
        },
        {
            "anonymous": false,
            "inputs": [
                {
                    "indexed": true,
                    "internalType": "uint256",
                    "name": "groupId",
                    "type": "uint256"
                },
                {
                    "indexed": false,
                    "internalType": "uint256",
                    "name": "index",
                    "type": "uint256"
                },
                {
                    "indexed": false,
                    "internalType": "uint256",
                    "name": "identityCommitment",
                    "type": "uint256"
                },
                {
                    "indexed": false,
                    "internalType": "uint256",
                    "name": "merkleTreeRoot",
                    "type": "uint256"
                }
            ],
            "name": "MemberAdded",
            "type": "event"
        },
        {
            "anonymous": false,
            "inputs": [
                {
                    "indexed": true,
                    "internalType": "uint256",
                    "name": "groupId",
                    "type": "uint256"
                },
                {
                    "indexed": false,
                    "internalType": "uint256",
                    "name": "index",
                    "type": "uint256"
                },
                {
                    "indexed": false,
                    "internalType": "uint256",
                    "name": "identityCommitment",
                    "type": "uint256"
                },
                {
                    "indexed": false,
                    "internalType": "uint256",
                    "name": "merkleTreeRoot",
                    "type": "uint256"
                }
            ],
            "name": "MemberRemoved",
            "type": "event"
        },
        {
            "anonymous": false,
            "inputs": [
                {
                    "indexed": true,
                    "internalType": "uint256",
                    "name": "groupId",
                    "type": "uint256"
                },
                {
                    "indexed": false,
                    "internalType": "uint256",
                    "name": "index",
                    "type": "uint256"
                },
                {
                    "indexed": false,
                    "internalType": "uint256",
                    "name": "identityCommitment",
                    "type": "uint256"
                },
                {
                    "indexed": false,
                    "internalType": "uint256",
                    "name": "newIdentityCommitment",
                    "type": "uint256"
                },
                {
                    "indexed": false,
                    "internalType": "uint256",
                    "name": "merkleTreeRoot",
                    "type": "uint256"
                }
            ],
            "name": "MemberUpdated",
            "type": "event"
        },
        {
            "anonymous": false,
            "inputs": [
                {
                    "indexed": false,
                    "internalType": "uint256",
                    "name": "nullifierHash",
                    "type": "uint256"
                }
            ],
            "name": "NullifierHashAdded",
            "type": "event"
        },
        {
            "anonymous": false,
            "inputs": [
                {
                    "indexed": true,
                    "internalType": "uint256",
                    "name": "groupId",
                    "type": "uint256"
                },
                {
                    "indexed": false,
                    "internalType": "uint256",
                    "name": "merkleTreeRoot",
                    "type": "uint256"
                },
                {
                    "indexed": false,
                    "internalType": "uint256",
                    "name": "externalNullifier",
                    "type": "uint256"
                },
                {
                    "indexed": false,
                    "internalType": "uint256",
                    "name": "nullifierHash",
                    "type": "uint256"
                },
                {
                    "indexed": false,
                    "internalType": "bytes32",
                    "name": "signal",
                    "type": "bytes32"
                }
            ],
            "name": "ProofVerified",
            "type": "event"
        },
        {
            "inputs": [
                {
                    "internalType": "uint256",
                    "name": "groupId",
                    "type": "uint256"
                },
                {
                    "internalType": "uint256",
                    "name": "identityCommitment",
                    "type": "uint256"
                }
            ],
            "name": "addMember",
            "outputs": [],
            "stateMutability": "nonpayable",
            "type": "function"
        },
        {
            "inputs": [
                {
                    "internalType": "uint256",
                    "name": "groupId",
                    "type": "uint256"
                },
                {
                    "internalType": "uint256[]",
                    "name": "identityCommitments",
                    "type": "uint256[]"
                }
            ],
            "name": "addMembers",
            "outputs": [],
            "stateMutability": "nonpayable",
            "type": "function"
        },
        {
            "inputs": [
                {
                    "internalType": "uint256",
                    "name": "groupId",
                    "type": "uint256"
                },
                {
                    "internalType": "uint256",
                    "name": "merkleTreeDepth",
                    "type": "uint256"
                },
                {
                    "internalType": "uint256",
                    "name": "zeroValue",
                    "type": "uint256"
                },
                {
                    "internalType": "address",
                    "name": "admin",
                    "type": "address"
                }
            ],
            "name": "createGroup",
            "outputs": [],
            "stateMutability": "nonpayable",
            "type": "function"
        },
        {
            "inputs": [
                {
                    "internalType": "uint256",
                    "name": "groupId",
                    "type": "uint256"
                },
                {
                    "internalType": "uint256",
                    "name": "merkleTreeDepth",
                    "type": "uint256"
                },
                {
                    "internalType": "uint256",
                    "name": "zeroValue",
                    "type": "uint256"
                },
                {
                    "internalType": "address",
                    "name": "admin",
                    "type": "address"
                },
                {
                    "internalType": "uint256",
                    "name": "merkleTreeRootDuration",
                    "type": "uint256"
                }
            ],
            "name": "createGroup",
            "outputs": [],
            "stateMutability": "nonpayable",
            "type": "function"
        },
        {
            "inputs": [
                {
                    "internalType": "uint256",
                    "name": "groupId",
                    "type": "uint256"
                }
            ],
            "name": "getMerkleTreeDepth",
            "outputs": [
                {
                    "internalType": "uint256",
                    "name": "",
                    "type": "uint256"
                }
            ],
            "stateMutability": "view",
            "type": "function"
        },
        {
            "inputs": [
                {
                    "internalType": "uint256",
                    "name": "groupId",
                    "type": "uint256"
                }
            ],
            "name": "getMerkleTreeRoot",
            "outputs": [
                {
                    "internalType": "uint256",
                    "name": "",
                    "type": "uint256"
                }
            ],
            "stateMutability": "view",
            "type": "function"
        },
        {
            "inputs": [
                {
                    "internalType": "uint256",
                    "name": "groupId",
                    "type": "uint256"
                }
            ],
            "name": "getNumberOfMerkleTreeLeaves",
            "outputs": [
                {
                    "internalType": "uint256",
                    "name": "",
                    "type": "uint256"
                }
            ],
            "stateMutability": "view",
            "type": "function"
        },
        {
            "inputs": [
                {
                    "internalType": "uint256",
                    "name": "",
                    "type": "uint256"
                }
            ],
            "name": "groupAdmins",
            "outputs": [
                {
                    "internalType": "address",
                    "name": "",
                    "type": "address"
                }
            ],
            "stateMutability": "view",
            "type": "function"
        },
        {
            "inputs": [
                {
                    "internalType": "uint256",
                    "name": "",
                    "type": "uint256"
                }
            ],
            "name": "merkleTreeExpiries",
            "outputs": [
                {
                    "internalType": "uint256",
                    "name": "rootDuration",
                    "type": "uint256"
                }
            ],
            "stateMutability": "view",
            "type": "function"
        },
        {
            "inputs": [
                {
                    "internalType": "uint256",
                    "name": "groupId",
                    "type": "uint256"
                },
                {
                    "internalType": "uint256",
                    "name": "identityCommitment",
                    "type": "uint256"
                },
                {
                    "internalType": "uint256[]",
                    "name": "proofSiblings",
                    "type": "uint256[]"
                },
                {
                    "internalType": "uint8[]",
                    "name": "proofPathIndices",
                    "type": "uint8[]"
                }
            ],
            "name": "removeMember",
            "outputs": [],
            "stateMutability": "nonpayable",
            "type": "function"
        },
        {
            "inputs": [
                {
                    "internalType": "uint256",
                    "name": "groupId",
                    "type": "uint256"
                },
                {
                    "internalType": "address",
                    "name": "newAdmin",
                    "type": "address"
                }
            ],
            "name": "updateGroupAdmin",
            "outputs": [],
            "stateMutability": "nonpayable",
            "type": "function"
        },
        {
            "inputs": [
                {
                    "internalType": "uint256",
                    "name": "groupId",
                    "type": "uint256"
                },
                {
                    "internalType": "uint256",
                    "name": "identityCommitment",
                    "type": "uint256"
                },
                {
                    "internalType": "uint256",
                    "name": "newIdentityCommitment",
                    "type": "uint256"
                },
                {
                    "internalType": "uint256[]",
                    "name": "proofSiblings",
                    "type": "uint256[]"
                },
                {
                    "internalType": "uint8[]",
                    "name": "proofPathIndices",
                    "type": "uint8[]"
                }
            ],
            "name": "updateMember",
            "outputs": [],
            "stateMutability": "nonpayable",
            "type": "function"
        },
        {
            "inputs": [
                {
                    "internalType": "uint256",
                    "name": "",
                    "type": "uint256"
                }
            ],
            "name": "verifiers",
            "outputs": [
                {
                    "internalType": "contract IVerifier",
                    "name": "",
                    "type": "address"
                }
            ],
            "stateMutability": "view",
            "type": "function"
        },
        {
            "inputs": [
                {
                    "internalType": "uint256",
                    "name": "groupId",
                    "type": "uint256"
                },
                {
                    "internalType": "uint256",
                    "name": "merkleTreeRoot",
                    "type": "uint256"
                },
                {
                    "internalType": "bytes32",
                    "name": "signal",
                    "type": "bytes32"
                },
                {
                    "internalType": "uint256",
                    "name": "nullifierHash",
                    "type": "uint256"
                },
                {
                    "internalType": "uint256",
                    "name": "externalNullifier",
                    "type": "uint256"
                },
                {
                    "internalType": "uint256[8]",
                    "name": "proof",
                    "type": "uint256[8]"
                }
            ],
            "name": "verifyProof",
            "outputs": [],
            "stateMutability": "nonpayable",
            "type": "function"
        }
    ],
    "bytecode": "0x60806040523480156200001157600080fd5b506040516200296738038062002967833981810160405281019062000037919062000260565b60005b81518160ff1610156200013557818160ff168151811062000084577f4e487b7100000000000000000000000000000000000000000000000000000000600052603260045260246000fd5b60200260200101516000015160026000848460ff1681518110620000d1577f4e487b7100000000000000000000000000000000000000000000000000000000600052603260045260246000fd5b602002602001015160200151815260200190815260200160002060006101000a81548173ffffffffffffffffffffffffffffffffffffffff021916908373ffffffffffffffffffffffffffffffffffffffff1602179055508060010190506200003a565b5050620003e5565b6000620001546200014e84620002ce565b620002a5565b905080838252602082019050828560408602820111156200017457600080fd5b60005b85811015620001a857816200018d8882620001f6565b84526020840193506040830192505060018101905062000177565b5050509392505050565b600081519050620001c381620003b1565b92915050565b600082601f830112620001db57600080fd5b8151620001ed8482602086016200013d565b91505092915050565b6000604082840312156200020957600080fd5b620002156040620002a5565b905060006200022784828501620001b2565b60008301525060206200023d8482850162000249565b60208301525092915050565b6000815190506200025a81620003cb565b92915050565b6000602082840312156200027357600080fd5b600082015167ffffffffffffffff8111156200028e57600080fd5b6200029c84828501620001c9565b91505092915050565b6000620002b1620002c4565b9050620002bf82826200033b565b919050565b6000604051905090565b600067ffffffffffffffff821115620002ec57620002eb62000371565b5b602082029050602081019050919050565b60006200030a8262000311565b9050919050565b600073ffffffffffffffffffffffffffffffffffffffff82169050919050565b6000819050919050565b6200034682620003a0565b810181811067ffffffffffffffff8211171562000368576200036762000371565b5b80604052505050565b7f4e487b7100000000000000000000000000000000000000000000000000000000600052604160045260246000fd5b6000601f19601f8301169050919050565b620003bc81620002fd565b8114620003c857600080fd5b50565b620003d68162000331565b8114620003e257600080fd5b50565b61257280620003f56000396000f3fe608060405234801561001057600080fd5b50600436106100ea5760003560e01c8063878d7cfd1161008c578063ac1eff6811610066578063ac1eff6814610243578063ac28eacd14610273578063dabc4d51146102a3578063ec45622a146102d3576100ea565b8063878d7cfd146101db5780638b69310a1461020b578063aa524e2c14610227576100ea565b806343989f85116100c857806343989f8514610143578063568ee8261461015f578063638480be1461017b5780636389e107146101ab576100ea565b806304245371146100ef578063059f1bb51461010b5780631783efc314610127575b600080fd5b610109600480360381019061010491906118d5565b6102ef565b005b61012560048036038101906101209190611a8e565b610438565b005b610141600480360381019061013c919061192d565b6105b0565b005b61015d60048036038101906101589190611969565b610699565b005b61017960048036038101906101749190611899565b610750565b005b61019560048036038101906101909190611870565b6108a9565b6040516101a29190612118565b60405180910390f35b6101c560048036038101906101c09190611870565b6108c9565b6040516101d29190612118565b60405180910390f35b6101f560048036038101906101f09190611870565b6108e9565b6040516102029190612118565b60405180910390f35b61022560048036038101906102209190611a04565b610907565b005b610241600480360381019061023c9190611af1565b610af0565b005b61025d60048036038101906102589190611870565b610c67565b60405161026a9190611fe1565b60405180910390f35b61028d60048036038101906102889190611870565b610c9a565b60405161029a9190611f7f565b60405180910390f35b6102bd60048036038101906102b89190611870565b610ccd565b6040516102ca9190612118565b60405180910390f35b6102ed60048036038101906102e89190611b68565b610ced565b005b826102f8610da6565b73ffffffffffffffffffffffffffffffffffffffff166003600083815260200190815260200160002060009054906101000a900473ffffffffffffffffffffffffffffffffffffffff1673ffffffffffffffffffffffffffffffffffffffff161461038f576040517fbb9bf27800000000000000000000000000000000000000000000000000000000815260040160405180910390fd5b60005b838390508160ff1610156103f7576103ec8585858460ff168181106103e0577f4e487b7100000000000000000000000000000000000000000000000000000000600052603260045260246000fd5b90506020020135610dae565b806001019050610392565b50600061040385610ccd565b905042600460008781526020019081526020016000206001016000838152602001908152602001600020819055505050505050565b82600073ffffffffffffffffffffffffffffffffffffffff166002600083815260200190815260200160002060009054906101000a900473ffffffffffffffffffffffffffffffffffffffff1673ffffffffffffffffffffffffffffffffffffffff1614156104d3576040517fecf64f1200000000000000000000000000000000000000000000000000000000815260040160405180910390fd5b6104de858585610ed6565b816003600087815260200190815260200160002060006101000a81548173ffffffffffffffffffffffffffffffffffffffff021916908373ffffffffffffffffffffffffffffffffffffffff160217905550610e1060046000878152602001908152602001600020600001819055508173ffffffffffffffffffffffffffffffffffffffff16600073ffffffffffffffffffffffffffffffffffffffff16867f0ba83579a0e79193ef649b9f5a8759d35af086ba62a3e207b52e4a8ae30d49e360405160405180910390a45050505050565b816105b9610da6565b73ffffffffffffffffffffffffffffffffffffffff166003600083815260200190815260200160002060009054906101000a900473ffffffffffffffffffffffffffffffffffffffff1673ffffffffffffffffffffffffffffffffffffffff1614610650576040517fbb9bf27800000000000000000000000000000000000000000000000000000000815260040160405180910390fd5b61065a8383610dae565b600061066584610ccd565b9050426004600086815260200190815260200160002060010160008381526020019081526020016000208190555050505050565b856106a2610da6565b73ffffffffffffffffffffffffffffffffffffffff166003600083815260200190815260200160002060009054906101000a900473ffffffffffffffffffffffffffffffffffffffff1673ffffffffffffffffffffffffffffffffffffffff1614610739576040517fbb9bf27800000000000000000000000000000000000000000000000000000000815260040160405180910390fd5b61074787878787878761102f565b50505050505050565b81610759610da6565b73ffffffffffffffffffffffffffffffffffffffff166003600083815260200190815260200160002060009054906101000a900473ffffffffffffffffffffffffffffffffffffffff1673ffffffffffffffffffffffffffffffffffffffff16146107f0576040517fbb9bf27800000000000000000000000000000000000000000000000000000000815260040160405180910390fd5b816003600085815260200190815260200160002060006101000a81548173ffffffffffffffffffffffffffffffffffffffff021916908373ffffffffffffffffffffffffffffffffffffffff1602179055508173ffffffffffffffffffffffffffffffffffffffff16610861610da6565b73ffffffffffffffffffffffffffffffffffffffff16847f0ba83579a0e79193ef649b9f5a8759d35af086ba62a3e207b52e4a8ae30d49e360405160405180910390a4505050565b600060016000838152602001908152602001600020600201549050919050565b600060016000838152602001908152602001600020600001549050919050565b60046020528060005260406000206000915090508060000154905081565b600061091287610ccd565b9050600081141561094f576040517f029f057900000000000000000000000000000000000000000000000000000000815260040160405180910390fd5b808614610a205760006004600089815260200190815260200160002060010160008881526020019081526020016000205490506000600460008a815260200190815260200160002060000154905060008214156109d8576040517f4d32958600000000000000000000000000000000000000000000000000000000815260040160405180910390fd5b80826109e491906122ff565b421115610a1d576040517f9581a99000000000000000000000000000000000000000000000000000000000815260040160405180910390fd5b50505b6000610a2b886108c9565b905060006002600083815260200190815260200160002060009054906101000a900473ffffffffffffffffffffffffffffffffffffffff169050610a73878988888886611158565b610aa78987604051602001610a89929190611f53565b6040516020818303038152906040528051906020012060001c6114a8565b887f708a95ee10fd07b9e300c13f6ad7eb0bf8f6a7b3d54c727320f9e7dfdb1296fd8988888b604051610add9493929190612193565b60405180910390a2505050505050505050565b83600073ffffffffffffffffffffffffffffffffffffffff166002600083815260200190815260200160002060009054906101000a900473ffffffffffffffffffffffffffffffffffffffff1673ffffffffffffffffffffffffffffffffffffffff161415610b8b576040517fecf64f1200000000000000000000000000000000000000000000000000000000815260040160405180910390fd5b610b96868686610ed6565b826003600088815260200190815260200160002060006101000a81548173ffffffffffffffffffffffffffffffffffffffff021916908373ffffffffffffffffffffffffffffffffffffffff1602179055508160046000888152602001908152602001600020600001819055508273ffffffffffffffffffffffffffffffffffffffff16600073ffffffffffffffffffffffffffffffffffffffff16877f0ba83579a0e79193ef649b9f5a8759d35af086ba62a3e207b52e4a8ae30d49e360405160405180910390a4505050505050565b60026020528060005260406000206000915054906101000a900473ffffffffffffffffffffffffffffffffffffffff1681565b60036020528060005260406000206000915054906101000a900473ffffffffffffffffffffffffffffffffffffffff1681565b600060016000838152602001908152602001600020600101549050919050565b86610cf6610da6565b73ffffffffffffffffffffffffffffffffffffffff166003600083815260200190815260200160002060009054906101000a900473ffffffffffffffffffffffffffffffffffffffff1673ffffffffffffffffffffffffffffffffffffffff1614610d8d576040517fbb9bf27800000000000000000000000000000000000000000000000000000000815260040160405180910390fd5b610d9c888888888888886114d6565b5050505050505050565b600033905090565b6000610db9836108c9565b1415610df1576040517f029f057900000000000000000000000000000000000000000000000000000000815260040160405180910390fd5b6001600083815260200190815260200160002073__$0c6eb7207c37accf1552a1c47686411ac0$__63168703fa9091836040518363ffffffff1660e01b8152600401610e3e929190611ffc565b60006040518083038186803b158015610e5657600080fd5b505af4158015610e6a573d6000803e3d6000fd5b505050506000610e7983610ccd565b905060006001610e88856108a9565b610e9291906123af565b9050837f19239b3f93cd10558aaf11423af70c77763bf54f52bcc75bfa74d4d13548cde9828585604051610ec89392919061215c565b60405180910390a250505050565b7f30644e72e131a029b85045b68181585d2833e84879b9709143e1f593f00000018310610f2f576040517fa61c78ca00000000000000000000000000000000000000000000000000000000815260040160405180910390fd5b6000610f3a846108c9565b14610f71576040517f8121725b00000000000000000000000000000000000000000000000000000000815260040160405180910390fd5b6001600084815260200190815260200160002073__$0c6eb7207c37accf1552a1c47686411ac0$__631095fbb4909184846040518463ffffffff1660e01b8152600401610fc09392919061207c565b60006040518083038186803b158015610fd857600080fd5b505af4158015610fec573d6000803e3d6000fd5b50505050827f0d000126c26c1bbe400fd2332187f75d58b69306f9ec47b408686189d3a008338383604051611022929190612133565b60405180910390a2505050565b600061103a87610ccd565b1415611072576040517f029f057900000000000000000000000000000000000000000000000000000000815260040160405180910390fd5b6001600087815260200190815260200160002073__$0c6eb7207c37accf1552a1c47686411ac0$__630629596f909187878787876040518763ffffffff1660e01b81526004016110c796959493929190612025565b60006040518083038186803b1580156110df57600080fd5b505af41580156110f3573d6000803e3d6000fd5b50505050600061110287610ccd565b905060006111108484611604565b9050877f3108849c053c77b8073a11256dffb5ffd5b55e93e105a355e1c9061db890d8718289856040516111469392919061215c565b60405180910390a25050505050505050565b60008085815260200190815260200160002060009054906101000a900460ff16156111af576040517f948d067400000000000000000000000000000000000000000000000000000000815260040160405180910390fd5b60006111ba87611733565b90508173ffffffffffffffffffffffffffffffffffffffff16635fe8c13b60405180604001604052808660006008811061121d577f4e487b7100000000000000000000000000000000000000000000000000000000600052603260045260246000fd5b6020020135815260200186600160088110611261577f4e487b7100000000000000000000000000000000000000000000000000000000600052603260045260246000fd5b602002013581525060405180604001604052806040518060400160405280896002600881106112b9577f4e487b7100000000000000000000000000000000000000000000000000000000600052603260045260246000fd5b60200201358152602001896003600881106112fd577f4e487b7100000000000000000000000000000000000000000000000000000000600052603260045260246000fd5b6020020135815250815260200160405180604001604052808960046008811061134f577f4e487b7100000000000000000000000000000000000000000000000000000000600052603260045260246000fd5b6020020135815260200189600560088110611393577f4e487b7100000000000000000000000000000000000000000000000000000000600052603260045260246000fd5b60200201358152508152506040518060400160405280886006600881106113e3577f4e487b7100000000000000000000000000000000000000000000000000000000600052603260045260246000fd5b6020020135815260200188600760088110611427577f4e487b7100000000000000000000000000000000000000000000000000000000600052603260045260246000fd5b602002013581525060405180608001604052808c81526020018b81526020018781526020018a8152506040518563ffffffff1660e01b815260040161146f9493929190611f9a565b60006040518083038186803b15801561148757600080fd5b505afa15801561149b573d6000803e3d6000fd5b5050505050505050505050565b600160008083815260200190815260200160002060006101000a81548160ff02191690831515021790555050565b60006114e188610ccd565b1415611519576040517f029f057900000000000000000000000000000000000000000000000000000000815260040160405180910390fd5b6001600088815260200190815260200160002073__$0c6eb7207c37accf1552a1c47686411ac0$__63a547882790918888888888886040518863ffffffff1660e01b815260040161157097969594939291906120b3565b60006040518083038186803b15801561158857600080fd5b505af415801561159c573d6000803e3d6000fd5b5050505060006115ab88610ccd565b905060006115b98484611604565b9050887fea3588e4a2a0c93d6a0e69dfeaf7496f43ccccf02ad9ce0a5b7627cbca4b61b1828a8a866040516115f194939291906121d8565b60405180910390a2505050505050505050565b6000806000905060008484905090505b60008160ff16111561172857600082118061168f57506000858560018461163b91906123e3565b60ff16818110611674577f4e487b7100000000000000000000000000000000000000000000000000000000600052603260045260246000fd5b90506020020160208101906116899190611c18565b60ff1614155b1561171c576002826116a19190612355565b9150600185856001846116b491906123e3565b60ff168181106116ed577f4e487b7100000000000000000000000000000000000000000000000000000000600052603260045260246000fd5b90506020020160208101906117029190611c18565b60ff16141561171b5760018261171891906122ff565b91505b5b80600190039050611614565b508091505092915050565b60006008826040516020016117489190611f38565b6040516020818303038152906040528051906020012060001c901c9050919050565b600081359050611779816124e0565b92915050565b60008190508260206008028201111561179757600080fd5b92915050565b60008083601f8401126117af57600080fd5b8235905067ffffffffffffffff8111156117c857600080fd5b6020830191508360208202830111156117e057600080fd5b9250929050565b60008083601f8401126117f957600080fd5b8235905067ffffffffffffffff81111561181257600080fd5b60208301915083602082028301111561182a57600080fd5b9250929050565b600081359050611840816124f7565b92915050565b6000813590506118558161250e565b92915050565b60008135905061186a81612525565b92915050565b60006020828403121561188257600080fd5b600061189084828501611846565b91505092915050565b600080604083850312156118ac57600080fd5b60006118ba85828601611846565b92505060206118cb8582860161176a565b9150509250929050565b6000806000604084860312156118ea57600080fd5b60006118f886828701611846565b935050602084013567ffffffffffffffff81111561191557600080fd5b6119218682870161179d565b92509250509250925092565b6000806040838503121561194057600080fd5b600061194e85828601611846565b925050602061195f85828601611846565b9150509250929050565b6000806000806000806080878903121561198257600080fd5b600061199089828a01611846565b96505060206119a189828a01611846565b955050604087013567ffffffffffffffff8111156119be57600080fd5b6119ca89828a0161179d565b9450945050606087013567ffffffffffffffff8111156119e957600080fd5b6119f589828a016117e7565b92509250509295509295509295565b6000806000806000806101a08789031215611a1e57600080fd5b6000611a2c89828a01611846565b9650506020611a3d89828a01611846565b9550506040611a4e89828a01611831565b9450506060611a5f89828a01611846565b9350506080611a7089828a01611846565b92505060a0611a8189828a0161177f565b9150509295509295509295565b60008060008060808587031215611aa457600080fd5b6000611ab287828801611846565b9450506020611ac387828801611846565b9350506040611ad487828801611846565b9250506060611ae58782880161176a565b91505092959194509250565b600080600080600060a08688031215611b0957600080fd5b6000611b1788828901611846565b9550506020611b2888828901611846565b9450506040611b3988828901611846565b9350506060611b4a8882890161176a565b9250506080611b5b88828901611846565b9150509295509295909350565b600080600080600080600060a0888a031215611b8357600080fd5b6000611b918a828b01611846565b9750506020611ba28a828b01611846565b9650506040611bb38a828b01611846565b955050606088013567ffffffffffffffff811115611bd057600080fd5b611bdc8a828b0161179d565b9450945050608088013567ffffffffffffffff811115611bfb57600080fd5b611c078a828b016117e7565b925092505092959891949750929550565b600060208284031215611c2a57600080fd5b6000611c388482850161185b565b91505092915050565b6000611c4d8383611cef565b60408301905092915050565b6000611c658383611ee5565b60208301905092915050565b6000611c7d8383611f29565b60208301905092915050565b611c9281612417565b82525050565b611ca181612245565b611cab818461229a565b9250611cb68261221d565b8060005b83811015611ce7578151611cce8782611c41565b9650611cd983612266565b925050600181019050611cba565b505050505050565b611cf881612250565b611d0281846122a5565b9250611d0d82612227565b8060005b83811015611d3e578151611d258782611c59565b9650611d3083612273565b925050600181019050611d11565b505050505050565b611d4f81612250565b611d5981846122b0565b9250611d6482612227565b8060005b83811015611d95578151611d7c8782611c59565b9650611d8783612273565b925050600181019050611d68565b505050505050565b611da68161225b565b611db081846122bb565b9250611dbb82612231565b8060005b83811015611dec578151611dd38782611c59565b9650611dde83612280565b925050600181019050611dbf565b505050505050565b6000611e0083856122c6565b93507f07ffffffffffffffffffffffffffffffffffffffffffffffffffffffffffffff831115611e2f57600080fd5b602083029250611e4083858461248e565b82840190509392505050565b6000611e5883856122d7565b9350611e638261223b565b8060005b85811015611e9c57611e7982846122e8565b611e838882611c71565b9750611e8e8361228d565b925050600181019050611e67565b5085925050509392505050565b611eb281612429565b82525050565b611ec9611ec482612429565b61249d565b82525050565b611ed88161246a565b82525050565b8082525050565b611eee81612453565b82525050565b611efd81612453565b82525050565b611f0c81612453565b82525050565b611f23611f1e82612453565b6124a7565b82525050565b611f328161245d565b82525050565b6000611f448284611eb8565b60208201915081905092915050565b6000611f5f8285611f12565b602082019150611f6f8284611f12565b6020820191508190509392505050565b6000602082019050611f946000830184611c89565b92915050565b600061018082019050611fb06000830187611d46565b611fbd6040830186611c98565b611fca60c0830185611d46565b611fd8610100830184611d9d565b95945050505050565b6000602082019050611ff66000830184611ecf565b92915050565b60006040820190506120116000830185611ede565b61201e6020830184611f03565b9392505050565b600060808201905061203a6000830189611ede565b6120476020830188611f03565b818103604083015261205a818688611df4565b9050818103606083015261206f818486611e4c565b9050979650505050505050565b60006060820190506120916000830186611ede565b61209e6020830185611f03565b6120ab6040830184611f03565b949350505050565b600060a0820190506120c8600083018a611ede565b6120d56020830189611f03565b6120e26040830188611f03565b81810360608301526120f5818688611df4565b9050818103608083015261210a818486611e4c565b905098975050505050505050565b600060208201905061212d6000830184611ef4565b92915050565b60006040820190506121486000830185611ef4565b6121556020830184611ef4565b9392505050565b60006060820190506121716000830186611ef4565b61217e6020830185611ef4565b61218b6040830184611ef4565b949350505050565b60006080820190506121a86000830187611ef4565b6121b56020830186611ef4565b6121c26040830185611ef4565b6121cf6060830184611ea9565b95945050505050565b60006080820190506121ed6000830187611ef4565b6121fa6020830186611ef4565b6122076040830185611ef4565b6122146060830184611ef4565b95945050505050565b6000819050919050565b6000819050919050565b6000819050919050565b6000819050919050565b600060029050919050565b600060029050919050565b600060049050919050565b6000602082019050919050565b6000602082019050919050565b6000602082019050919050565b6000602082019050919050565b600081905092915050565b600081905092915050565b600081905092915050565b600081905092915050565b600082825260208201905092915050565b600082825260208201905092915050565b60006122f7602084018461185b565b905092915050565b600061230a82612453565b915061231583612453565b9250827fffffffffffffffffffffffffffffffffffffffffffffffffffffffffffffffff0382111561234a576123496124b1565b5b828201905092915050565b600061236082612453565b915061236b83612453565b9250817fffffffffffffffffffffffffffffffffffffffffffffffffffffffffffffffff04831182151516156123a4576123a36124b1565b5b828202905092915050565b60006123ba82612453565b91506123c583612453565b9250828210156123d8576123d76124b1565b5b828203905092915050565b60006123ee8261245d565b91506123f98361245d565b92508282101561240c5761240b6124b1565b5b828203905092915050565b600061242282612433565b9050919050565b6000819050919050565b600073ffffffffffffffffffffffffffffffffffffffff82169050919050565b6000819050919050565b600060ff82169050919050565b60006124758261247c565b9050919050565b600061248782612433565b9050919050565b82818337600083830152505050565b6000819050919050565b6000819050919050565b7f4e487b7100000000000000000000000000000000000000000000000000000000600052601160045260246000fd5b6124e981612417565b81146124f457600080fd5b50565b61250081612429565b811461250b57600080fd5b50565b61251781612453565b811461252257600080fd5b50565b61252e8161245d565b811461253957600080fd5b5056fea2646970667358221220b6b4258f667986c01c34038028305c2d3931c40a36579e7a5de24be5116e2e0464736f6c63430008040033",
    "linkReferences": {
        "@zk-kit/incremental-merkle-tree.sol/IncrementalBinaryTree.sol": {
            "IncrementalBinaryTree": [
                {
                    "length": 20,
                    "start": 4603
                },
                {
                    "length": 20,
                    "start": 4987
                },
                {
                    "length": 20,
                    "start": 5244
                },
                {
                    "length": 20,
                    "start": 6435
                }
            ]
        }
    },
    "deployedLinkReferences": {
        "@zk-kit/incremental-merkle-tree.sol/IncrementalBinaryTree.sol": {
            "IncrementalBinaryTree": [
                {
                    "length": 20,
                    "start": 3590
                },
                {
                    "length": 20,
                    "start": 3974
                },
                {
                    "length": 20,
                    "start": 4231
                },
                {
                    "length": 20,
                    "start": 5422
                }
            ]
        }
    }
}