{
  "_format": "hh-sol-artifact-1",
  "contractName": "Semaphore",
  "sourceName": "contracts/Semaphore.sol",
  "abi": [
    {
      "inputs": [
        {
          "components": [
            {
              "internalType": "address",
              "name": "contractAddress",
              "type": "address"
            },
            {
              "internalType": "uint8",
              "name": "merkleTreeDepth",
              "type": "uint8"
            }
          ],
          "internalType": "struct ISemaphore.Verifier[]",
          "name": "_verifiers",
          "type": "tuple[]"
        }
      ],
      "stateMutability": "nonpayable",
      "type": "constructor"
    },
    {
      "anonymous": false,
      "inputs": [
        {
          "indexed": true,
          "internalType": "uint256",
          "name": "groupId",
          "type": "uint256"
        },
        {
          "indexed": true,
          "internalType": "address",
          "name": "oldAdmin",
          "type": "address"
        },
        {
          "indexed": true,
          "internalType": "address",
          "name": "newAdmin",
          "type": "address"
        }
      ],
      "name": "GroupAdminUpdated",
      "type": "event"
    },
    {
      "anonymous": false,
      "inputs": [
        {
          "indexed": true,
          "internalType": "uint256",
          "name": "groupId",
          "type": "uint256"
        },
        {
          "indexed": false,
          "internalType": "uint8",
          "name": "depth",
          "type": "uint8"
        },
        {
          "indexed": false,
          "internalType": "uint256",
          "name": "zeroValue",
          "type": "uint256"
        }
      ],
      "name": "GroupCreated",
      "type": "event"
    },
    {
      "anonymous": false,
      "inputs": [
        {
          "indexed": true,
          "internalType": "uint256",
          "name": "groupId",
          "type": "uint256"
        },
        {
          "indexed": false,
          "internalType": "uint256",
          "name": "identityCommitment",
          "type": "uint256"
        },
        {
          "indexed": false,
          "internalType": "uint256",
          "name": "root",
          "type": "uint256"
        }
      ],
      "name": "MemberAdded",
      "type": "event"
    },
    {
      "anonymous": false,
      "inputs": [
        {
          "indexed": true,
          "internalType": "uint256",
          "name": "groupId",
          "type": "uint256"
        },
        {
          "indexed": false,
          "internalType": "uint256",
          "name": "identityCommitment",
          "type": "uint256"
        },
        {
          "indexed": false,
          "internalType": "uint256",
          "name": "root",
          "type": "uint256"
        }
      ],
      "name": "MemberRemoved",
      "type": "event"
    },
    {
      "anonymous": false,
      "inputs": [
        {
          "indexed": false,
          "internalType": "uint256",
          "name": "nullifierHash",
          "type": "uint256"
        }
      ],
      "name": "NullifierHashAdded",
      "type": "event"
    },
    {
      "anonymous": false,
      "inputs": [
        {
          "indexed": true,
          "internalType": "uint256",
          "name": "groupId",
          "type": "uint256"
        },
        {
          "indexed": false,
          "internalType": "bytes32",
          "name": "signal",
          "type": "bytes32"
        }
      ],
      "name": "ProofVerified",
      "type": "event"
    },
    {
      "inputs": [
        {
          "internalType": "uint256",
          "name": "groupId",
          "type": "uint256"
        },
        {
          "internalType": "uint256",
          "name": "identityCommitment",
          "type": "uint256"
        }
      ],
      "name": "addMember",
      "outputs": [],
      "stateMutability": "nonpayable",
      "type": "function"
    },
    {
      "inputs": [
        {
          "internalType": "uint256",
          "name": "groupId",
          "type": "uint256"
        },
        {
          "internalType": "uint8",
          "name": "depth",
          "type": "uint8"
        },
        {
          "internalType": "address",
          "name": "admin",
          "type": "address"
        }
      ],
      "name": "createGroup",
      "outputs": [],
      "stateMutability": "nonpayable",
      "type": "function"
    },
    {
      "inputs": [
        {
          "internalType": "uint256",
          "name": "groupId",
          "type": "uint256"
        }
      ],
      "name": "getDepth",
      "outputs": [
        {
          "internalType": "uint8",
          "name": "",
          "type": "uint8"
        }
      ],
      "stateMutability": "view",
      "type": "function"
    },
    {
      "inputs": [
        {
          "internalType": "uint256",
          "name": "groupId",
          "type": "uint256"
        }
      ],
      "name": "getNumberOfLeaves",
      "outputs": [
        {
          "internalType": "uint256",
          "name": "",
          "type": "uint256"
        }
      ],
      "stateMutability": "view",
      "type": "function"
    },
    {
      "inputs": [
        {
          "internalType": "uint256",
          "name": "groupId",
          "type": "uint256"
        }
      ],
      "name": "getRoot",
      "outputs": [
        {
          "internalType": "uint256",
          "name": "",
          "type": "uint256"
        }
      ],
      "stateMutability": "view",
      "type": "function"
    },
    {
      "inputs": [
        {
          "internalType": "uint256",
          "name": "",
          "type": "uint256"
        }
      ],
      "name": "groupAdmins",
      "outputs": [
        {
          "internalType": "address",
          "name": "",
          "type": "address"
        }
      ],
      "stateMutability": "view",
      "type": "function"
    },
    {
      "inputs": [
        {
          "internalType": "uint256",
          "name": "groupId",
          "type": "uint256"
        },
        {
          "internalType": "uint256",
          "name": "identityCommitment",
          "type": "uint256"
        },
        {
          "internalType": "uint256[]",
          "name": "proofSiblings",
          "type": "uint256[]"
        },
        {
          "internalType": "uint8[]",
          "name": "proofPathIndices",
          "type": "uint8[]"
        }
      ],
      "name": "removeMember",
      "outputs": [],
      "stateMutability": "nonpayable",
      "type": "function"
    },
    {
      "inputs": [
        {
          "internalType": "uint256",
          "name": "groupId",
          "type": "uint256"
        },
        {
          "internalType": "address",
          "name": "newAdmin",
          "type": "address"
        }
      ],
      "name": "updateGroupAdmin",
      "outputs": [],
      "stateMutability": "nonpayable",
      "type": "function"
    },
    {
      "inputs": [
        {
          "internalType": "uint8",
          "name": "",
          "type": "uint8"
        }
      ],
      "name": "verifiers",
      "outputs": [
        {
          "internalType": "contract IVerifier",
          "name": "",
          "type": "address"
        }
      ],
      "stateMutability": "view",
      "type": "function"
    },
    {
      "inputs": [
        {
          "internalType": "uint256",
          "name": "groupId",
          "type": "uint256"
        },
        {
          "internalType": "bytes32",
          "name": "signal",
          "type": "bytes32"
        },
        {
          "internalType": "uint256",
          "name": "nullifierHash",
          "type": "uint256"
        },
        {
          "internalType": "uint256",
          "name": "externalNullifier",
          "type": "uint256"
        },
        {
          "internalType": "uint256[8]",
          "name": "proof",
          "type": "uint256[8]"
        }
      ],
      "name": "verifyProof",
      "outputs": [],
      "stateMutability": "nonpayable",
      "type": "function"
    }
  ],
  "bytecode": "0x60806040523480156200001157600080fd5b506040516200221338038062002213833981810160405281019062000037919062000270565b60005b81518160ff1610156200014557818160ff168151811062000084577f4e487b7100000000000000000000000000000000000000000000000000000000600052603260045260246000fd5b60200260200101516000015160026000848460ff1681518110620000d1577f4e487b7100000000000000000000000000000000000000000000000000000000600052603260045260246000fd5b60200260200101516020015160ff1660ff16815260200190815260200160002060006101000a81548173ffffffffffffffffffffffffffffffffffffffff021916908373ffffffffffffffffffffffffffffffffffffffff16021790555080806200013c9062000384565b9150506200003a565b505062000456565b6000620001646200015e84620002de565b620002b5565b905080838252602082019050828560408602820111156200018457600080fd5b60005b85811015620001b857816200019d888262000206565b84526020840193506040830192505060018101905062000187565b5050509392505050565b600081519050620001d38162000422565b92915050565b600082601f830112620001eb57600080fd5b8151620001fd8482602086016200014d565b91505092915050565b6000604082840312156200021957600080fd5b620002256040620002b5565b905060006200023784828501620001c2565b60008301525060206200024d8482850162000259565b60208301525092915050565b6000815190506200026a816200043c565b92915050565b6000602082840312156200028357600080fd5b600082015167ffffffffffffffff8111156200029e57600080fd5b620002ac84828501620001d9565b91505092915050565b6000620002c1620002d4565b9050620002cf82826200034e565b919050565b6000604051905090565b600067ffffffffffffffff821115620002fc57620002fb620003e2565b5b602082029050602081019050919050565b60006200031a8262000321565b9050919050565b600073ffffffffffffffffffffffffffffffffffffffff82169050919050565b600060ff82169050919050565b620003598262000411565b810181811067ffffffffffffffff821117156200037b576200037a620003e2565b5b80604052505050565b6000620003918262000341565b915060ff821415620003a857620003a7620003b3565b5b600182019050919050565b7f4e487b7100000000000000000000000000000000000000000000000000000000600052601160045260246000fd5b7f4e487b7100000000000000000000000000000000000000000000000000000000600052604160045260246000fd5b6000601f19601f8301169050919050565b6200042d816200030d565b81146200043957600080fd5b50565b620004478162000341565b81146200045357600080fd5b50565b611dad80620004666000396000f3fe608060405234801561001057600080fd5b506004361061009e5760003560e01c806375e618c91161006657806375e618c9146101435780639b24b3b014610173578063ac28eacd146101a3578063b9c78c2b146101d3578063c156f4c3146102035761009e565b80631783efc3146100a35780632d69be98146100bf57806343989f85146100ef578063568ee8261461010b5780636673e84914610127575b600080fd5b6100bd60048036038101906100b89190611181565b61021f565b005b6100d960048036038101906100d491906112a7565b6102d7565b6040516100e6919061175b565b60405180910390f35b610109600480360381019061010491906111bd565b61030a565b005b610125600480360381019061012091906110cd565b6103ca565b005b610141600480360381019061013c9190611109565b61052c565b005b61015d600480360381019061015891906110a4565b610624565b60405161016a9190611951565b60405180910390f35b61018d600480360381019061018891906110a4565b610651565b60405161019a919061190d565b60405180910390f35b6101bd60048036038101906101b891906110a4565b610671565b6040516101ca91906116de565b60405180910390f35b6101ed60048036038101906101e891906110a4565b6106a4565b6040516101fa919061190d565b60405180910390f35b61021d60048036038101906102189190611258565b6106c4565b005b8161022861082e565b73ffffffffffffffffffffffffffffffffffffffff166003600083815260200190815260200160002060009054906101000a900473ffffffffffffffffffffffffffffffffffffffff1673ffffffffffffffffffffffffffffffffffffffff16146102c8576040517f08c379a00000000000000000000000000000000000000000000000000000000081526004016102bf906117f6565b60405180910390fd5b6102d28383610836565b505050565b60026020528060005260406000206000915054906101000a900473ffffffffffffffffffffffffffffffffffffffff1681565b8561031361082e565b73ffffffffffffffffffffffffffffffffffffffff166003600083815260200190815260200160002060009054906101000a900473ffffffffffffffffffffffffffffffffffffffff1673ffffffffffffffffffffffffffffffffffffffff16146103b3576040517f08c379a00000000000000000000000000000000000000000000000000000000081526004016103aa906117f6565b60405180910390fd5b6103c187878787878761094e565b50505050505050565b816103d361082e565b73ffffffffffffffffffffffffffffffffffffffff166003600083815260200190815260200160002060009054906101000a900473ffffffffffffffffffffffffffffffffffffffff1673ffffffffffffffffffffffffffffffffffffffff1614610473576040517f08c379a000000000000000000000000000000000000000000000000000000000815260040161046a906117f6565b60405180910390fd5b816003600085815260200190815260200160002060006101000a81548173ffffffffffffffffffffffffffffffffffffffff021916908373ffffffffffffffffffffffffffffffffffffffff1602179055508173ffffffffffffffffffffffffffffffffffffffff166104e461082e565b73ffffffffffffffffffffffffffffffffffffffff16847f0ba83579a0e79193ef649b9f5a8759d35af086ba62a3e207b52e4a8ae30d49e360405160405180910390a4505050565b600061053786610651565b9050600061054487610624565b905060008160ff16141561058d576040517f08c379a0000000000000000000000000000000000000000000000000000000008152600401610584906117b6565b60405180910390fd5b6000600260008360ff1660ff16815260200190815260200160002060009054906101000a900473ffffffffffffffffffffffffffffffffffffffff1690506105d9878488888886610a72565b6105e286610dcb565b877f102229041138505f4cecdadc8e3ac1cd92c55870c17371050fc00bdb08889801886040516106129190611740565b60405180910390a25050505050505050565b60006001600083815260200190815260200160002060000160009054906101000a900460ff169050919050565b600060016000838152602001908152602001600020600101549050919050565b60036020528060005260406000206000915054906101000a900473ffffffffffffffffffffffffffffffffffffffff1681565b600060016000838152602001908152602001600020600201549050919050565b81600073ffffffffffffffffffffffffffffffffffffffff16600260008360ff1660ff16815260200190815260200160002060009054906101000a900473ffffffffffffffffffffffffffffffffffffffff1673ffffffffffffffffffffffffffffffffffffffff16141561076e576040517f08c379a000000000000000000000000000000000000000000000000000000000815260040161076590611816565b60405180910390fd5b61077a84846000610df9565b816003600086815260200190815260200160002060006101000a81548173ffffffffffffffffffffffffffffffffffffffff021916908373ffffffffffffffffffffffffffffffffffffffff1602179055508173ffffffffffffffffffffffffffffffffffffffff16600073ffffffffffffffffffffffffffffffffffffffff16857f0ba83579a0e79193ef649b9f5a8759d35af086ba62a3e207b52e4a8ae30d49e360405160405180910390a450505050565b600033905090565b600061084183610624565b60ff161415610885576040517f08c379a000000000000000000000000000000000000000000000000000000000815260040161087c906117d6565b60405180910390fd5b6001600083815260200190815260200160002073__$4c0484323457fe1a856f46a4759b553fe4$__63168703fa9091836040518363ffffffff1660e01b81526004016108d2929190611856565b60006040518083038186803b1580156108ea57600080fd5b505af41580156108fe573d6000803e3d6000fd5b50505050600061090d83610651565b9050827f03fd27265b7dd1f55558bedc22a58fa3b10afb1be776e614bd5a7ba7b94994068383604051610941929190611928565b60405180910390a2505050565b600061095987610624565b60ff16141561099d576040517f08c379a0000000000000000000000000000000000000000000000000000000008152600401610994906117d6565b60405180910390fd5b6001600087815260200190815260200160002073__$4c0484323457fe1a856f46a4759b553fe4$__630629596f909187878787876040518763ffffffff1660e01b81526004016109f29695949392919061187f565b60006040518083038186803b158015610a0a57600080fd5b505af4158015610a1e573d6000803e3d6000fd5b505050506000610a2d87610651565b9050867fe270325ded177064d7bda473e6519ef40a291058c41286f71a6e4872f1e9ab5c8783604051610a61929190611928565b60405180910390a250505050505050565b60008085815260200190815260200160002060009054906101000a900460ff1615610ad2576040517f08c379a0000000000000000000000000000000000000000000000000000000008152600401610ac990611776565b60405180910390fd5b6000610add87610f67565b90508173ffffffffffffffffffffffffffffffffffffffff16635fe8c13b604051806040016040528086600060088110610b40577f4e487b7100000000000000000000000000000000000000000000000000000000600052603260045260246000fd5b6020020135815260200186600160088110610b84577f4e487b7100000000000000000000000000000000000000000000000000000000600052603260045260246000fd5b60200201358152506040518060400160405280604051806040016040528089600260088110610bdc577f4e487b7100000000000000000000000000000000000000000000000000000000600052603260045260246000fd5b6020020135815260200189600360088110610c20577f4e487b7100000000000000000000000000000000000000000000000000000000600052603260045260246000fd5b60200201358152508152602001604051806040016040528089600460088110610c72577f4e487b7100000000000000000000000000000000000000000000000000000000600052603260045260246000fd5b6020020135815260200189600560088110610cb6577f4e487b7100000000000000000000000000000000000000000000000000000000600052603260045260246000fd5b6020020135815250815250604051806040016040528088600660088110610d06577f4e487b7100000000000000000000000000000000000000000000000000000000600052603260045260246000fd5b6020020135815260200188600760088110610d4a577f4e487b7100000000000000000000000000000000000000000000000000000000600052603260045260246000fd5b602002013581525060405180608001604052808c81526020018b81526020018781526020018a8152506040518563ffffffff1660e01b8152600401610d9294939291906116f9565b60006040518083038186803b158015610daa57600080fd5b505afa158015610dbe573d6000803e3d6000fd5b5050505050505050505050565b600160008083815260200190815260200160002060006101000a81548160ff02191690831515021790555050565b7f30644e72e131a029b85045b68181585d2833e84879b9709143e1f593f00000018310610e5b576040517f08c379a0000000000000000000000000000000000000000000000000000000008152600401610e5290611836565b60405180910390fd5b6000610e6684610624565b60ff1614610ea9576040517f08c379a0000000000000000000000000000000000000000000000000000000008152600401610ea090611796565b60405180910390fd5b6001600084815260200190815260200160002073__$4c0484323457fe1a856f46a4759b553fe4$__63b4bdd117909184846040518463ffffffff1660e01b8152600401610ef8939291906118d6565b60006040518083038186803b158015610f1057600080fd5b505af4158015610f24573d6000803e3d6000fd5b50505050827fc3082aa494e9088c2c9f0fb62a0b6bd46e6699acb94cfba35be29b95a93f68c88383604051610f5a92919061196c565b60405180910390a2505050565b6000600882604051602001610f7c91906116c3565b6040516020818303038152906040528051906020012060001c901c9050919050565b600081359050610fad81611d1b565b92915050565b600081905082602060080282011115610fcb57600080fd5b92915050565b60008083601f840112610fe357600080fd5b8235905067ffffffffffffffff811115610ffc57600080fd5b60208301915083602082028301111561101457600080fd5b9250929050565b60008083601f84011261102d57600080fd5b8235905067ffffffffffffffff81111561104657600080fd5b60208301915083602082028301111561105e57600080fd5b9250929050565b60008135905061107481611d32565b92915050565b60008135905061108981611d49565b92915050565b60008135905061109e81611d60565b92915050565b6000602082840312156110b657600080fd5b60006110c48482850161107a565b91505092915050565b600080604083850312156110e057600080fd5b60006110ee8582860161107a565b92505060206110ff85828601610f9e565b9150509250929050565b6000806000806000610180868803121561112257600080fd5b60006111308882890161107a565b955050602061114188828901611065565b94505060406111528882890161107a565b93505060606111638882890161107a565b925050608061117488828901610fb3565b9150509295509295909350565b6000806040838503121561119457600080fd5b60006111a28582860161107a565b92505060206111b38582860161107a565b9150509250929050565b600080600080600080608087890312156111d657600080fd5b60006111e489828a0161107a565b96505060206111f589828a0161107a565b955050604087013567ffffffffffffffff81111561121257600080fd5b61121e89828a01610fd1565b9450945050606087013567ffffffffffffffff81111561123d57600080fd5b61124989828a0161101b565b92509250509295509295509295565b60008060006060848603121561126d57600080fd5b600061127b8682870161107a565b935050602061128c8682870161108f565b925050604061129d86828701610f9e565b9150509250925092565b6000602082840312156112b957600080fd5b60006112c78482850161108f565b91505092915050565b60006112dc838361137e565b60408301905092915050565b60006112f48383611669565b60208301905092915050565b600061130c83836116b4565b60208301905092915050565b61132181611a88565b82525050565b611330816119bd565b61133a8184611a12565b925061134582611995565b8060005b8381101561137657815161135d87826112d0565b9650611368836119de565b925050600181019050611349565b505050505050565b611387816119c8565b6113918184611a1d565b925061139c8261199f565b8060005b838110156113cd5781516113b487826112e8565b96506113bf836119eb565b9250506001810190506113a0565b505050505050565b6113de816119c8565b6113e88184611a28565b92506113f38261199f565b8060005b8381101561142457815161140b87826112e8565b9650611416836119eb565b9250506001810190506113f7565b505050505050565b611435816119d3565b61143f8184611a33565b925061144a826119a9565b8060005b8381101561147b57815161146287826112e8565b965061146d836119f8565b92505060018101905061144e565b505050505050565b600061148f8385611a3e565b93507f07ffffffffffffffffffffffffffffffffffffffffffffffffffffffffffffff8311156114be57600080fd5b6020830292506114cf838584611aff565b82840190509392505050565b60006114e78385611a4f565b93506114f2826119b3565b8060005b8581101561152b576115088284611a71565b6115128882611300565b975061151d83611a05565b9250506001810190506114f6565b5085925050509392505050565b61154181611a9a565b82525050565b61155861155382611a9a565b611b0e565b82525050565b61156781611adb565b82525050565b600061157a603683611a60565b915061158582611b18565b604082019050919050565b600061159d602583611a60565b91506115a882611b67565b604082019050919050565b60006115c0601f83611a60565b91506115cb82611bb6565b602082019050919050565b60006115e3602583611a60565b91506115ee82611bdf565b604082019050919050565b6000611606602883611a60565b915061161182611c2e565b604082019050919050565b6000611629602683611a60565b915061163482611c7d565b604082019050919050565b600061164c603683611a60565b915061165782611ccc565b604082019050919050565b8082525050565b61167281611ac4565b82525050565b61168181611ac4565b82525050565b61169081611ac4565b82525050565b61169f81611ace565b82525050565b6116ae81611ace565b82525050565b6116bd81611ace565b82525050565b60006116cf8284611547565b60208201915081905092915050565b60006020820190506116f36000830184611318565b92915050565b60006101808201905061170f60008301876113d5565b61171c6040830186611327565b61172960c08301856113d5565b61173761010083018461142c565b95945050505050565b60006020820190506117556000830184611538565b92915050565b6000602082019050611770600083018461155e565b92915050565b6000602082019050818103600083015261178f8161156d565b9050919050565b600060208201905081810360008301526117af81611590565b9050919050565b600060208201905081810360008301526117cf816115b3565b9050919050565b600060208201905081810360008301526117ef816115d6565b9050919050565b6000602082019050818103600083015261180f816115f9565b9050919050565b6000602082019050818103600083015261182f8161161c565b9050919050565b6000602082019050818103600083015261184f8161163f565b9050919050565b600060408201905061186b6000830185611662565b6118786020830184611687565b9392505050565b60006080820190506118946000830189611662565b6118a16020830188611687565b81810360408301526118b4818688611483565b905081810360608301526118c98184866114db565b9050979650505050505050565b60006060820190506118eb6000830186611662565b6118f860208301856116a5565b6119056040830184611687565b949350505050565b60006020820190506119226000830184611678565b92915050565b600060408201905061193d6000830185611678565b61194a6020830184611678565b9392505050565b60006020820190506119666000830184611696565b92915050565b60006040820190506119816000830185611696565b61198e6020830184611678565b9392505050565b6000819050919050565b6000819050919050565b6000819050919050565b6000819050919050565b600060029050919050565b600060029050919050565b600060049050919050565b6000602082019050919050565b6000602082019050919050565b6000602082019050919050565b6000602082019050919050565b600081905092915050565b600081905092915050565b600081905092915050565b600081905092915050565b600082825260208201905092915050565b600082825260208201905092915050565b600082825260208201905092915050565b6000611a80602084018461108f565b905092915050565b6000611a9382611aa4565b9050919050565b6000819050919050565b600073ffffffffffffffffffffffffffffffffffffffff82169050919050565b6000819050919050565b600060ff82169050919050565b6000611ae682611aed565b9050919050565b6000611af882611aa4565b9050919050565b82818337600083830152505050565b6000819050919050565b7f53656d6170686f7265436f72653a20796f752063616e6e6f742075736520746860008201527f652073616d65206e756c6c696669657220747769636500000000000000000000602082015250565b7f53656d6170686f726547726f7570733a2067726f757020616c7265616479206560008201527f7869737473000000000000000000000000000000000000000000000000000000602082015250565b7f53656d6170686f72653a2067726f757020646f6573206e6f7420657869737400600082015250565b7f53656d6170686f726547726f7570733a2067726f757020646f6573206e6f742060008201527f6578697374000000000000000000000000000000000000000000000000000000602082015250565b7f53656d6170686f72653a2063616c6c6572206973206e6f74207468652067726f60008201527f75702061646d696e000000000000000000000000000000000000000000000000602082015250565b7f53656d6170686f72653a2074726565206465707468206973206e6f742073757060008201527f706f727465640000000000000000000000000000000000000000000000000000602082015250565b7f53656d6170686f726547726f7570733a2067726f7570206964206d757374206260008201527f65203c20534e41524b5f5343414c41525f4649454c4400000000000000000000602082015250565b611d2481611a88565b8114611d2f57600080fd5b50565b611d3b81611a9a565b8114611d4657600080fd5b50565b611d5281611ac4565b8114611d5d57600080fd5b50565b611d6981611ace565b8114611d7457600080fd5b5056fea26469706673582212200356ace4afff710ab3620b0e03170b40cbffb7244f51e75b2b8d5b626200de8564736f6c63430008040033",
  "linkReferences": {
    "@zk-kit/incremental-merkle-tree.sol/contracts/IncrementalBinaryTree.sol": {
      "IncrementalBinaryTree": [
        {
          "length": 20,
          "start": 3328
        },
        {
          "length": 20,
          "start": 3608
        },
        {
          "length": 20,
          "start": 4900
        }
      ]
    }
  },
  "deployedLinkReferences": {
    "@zk-kit/incremental-merkle-tree.sol/contracts/IncrementalBinaryTree.sol": {
      "IncrementalBinaryTree": [
        {
          "length": 20,
          "start": 2202
        },
        {
          "length": 20,
          "start": 2482
        },
        {
          "length": 20,
          "start": 3774
        }
      ]
    }
  }
}